{
  "_format": "hh-sol-artifact-1",
  "contractName": "ExampleNFT",
  "sourceName": "contracts/ExampleNFT.sol",
  "abi": [
    {
      "inputs": [],
      "stateMutability": "nonpayable",
      "type": "constructor"
    },
    {
      "anonymous": false,
      "inputs": [
        {
          "indexed": true,
          "internalType": "address",
          "name": "owner",
          "type": "address"
        },
        {
          "indexed": true,
          "internalType": "address",
          "name": "approved",
          "type": "address"
        },
        {
          "indexed": true,
          "internalType": "uint256",
          "name": "tokenId",
          "type": "uint256"
        }
      ],
      "name": "Approval",
      "type": "event"
    },
    {
      "anonymous": false,
      "inputs": [
        {
          "indexed": true,
          "internalType": "address",
          "name": "owner",
          "type": "address"
        },
        {
          "indexed": true,
          "internalType": "address",
          "name": "operator",
          "type": "address"
        },
        {
          "indexed": false,
          "internalType": "bool",
          "name": "approved",
          "type": "bool"
        }
      ],
      "name": "ApprovalForAll",
      "type": "event"
    },
    {
      "anonymous": false,
      "inputs": [
        {
          "indexed": true,
          "internalType": "address",
          "name": "from",
          "type": "address"
        },
        {
          "indexed": true,
          "internalType": "address",
          "name": "to",
          "type": "address"
        },
        {
          "indexed": true,
          "internalType": "uint256",
          "name": "tokenId",
          "type": "uint256"
        }
      ],
      "name": "Transfer",
      "type": "event"
    },
    {
      "inputs": [
        {
          "internalType": "string",
          "name": "_propertyName",
          "type": "string"
        },
        {
          "internalType": "string",
          "name": "_propertyValue",
          "type": "string"
        }
      ],
      "name": "addGlobalProp",
      "outputs": [],
      "stateMutability": "nonpayable",
      "type": "function"
    },
    {
      "inputs": [
        {
          "internalType": "string",
          "name": "_propertyName",
          "type": "string"
        },
        {
          "internalType": "bool",
          "name": "_isEditable",
          "type": "bool"
        }
      ],
      "name": "addNumericalProp",
      "outputs": [],
      "stateMutability": "nonpayable",
      "type": "function"
    },
    {
      "inputs": [
        {
          "internalType": "string",
          "name": "_propertyName",
          "type": "string"
        },
        {
          "internalType": "bool",
          "name": "_isEditable",
          "type": "bool"
        }
      ],
      "name": "addStringProp",
      "outputs": [],
      "stateMutability": "nonpayable",
      "type": "function"
    },
    {
      "inputs": [
        {
          "internalType": "address",
          "name": "to",
          "type": "address"
        },
        {
          "internalType": "uint256",
          "name": "tokenId",
          "type": "uint256"
        }
      ],
      "name": "approve",
      "outputs": [],
      "stateMutability": "nonpayable",
      "type": "function"
    },
    {
      "inputs": [
        {
          "internalType": "address",
          "name": "owner",
          "type": "address"
        }
      ],
      "name": "balanceOf",
      "outputs": [
        {
          "internalType": "uint256",
          "name": "",
          "type": "uint256"
        }
      ],
      "stateMutability": "view",
      "type": "function"
    },
    {
      "inputs": [
        {
          "internalType": "uint256",
          "name": "_tokenId",
          "type": "uint256"
        }
      ],
      "name": "buildTokenURI",
      "outputs": [
        {
          "internalType": "string",
          "name": "",
          "type": "string"
        }
      ],
      "stateMutability": "view",
      "type": "function"
    },
    {
      "inputs": [],
      "name": "contractOwner",
      "outputs": [
        {
          "internalType": "address",
          "name": "",
          "type": "address"
        }
      ],
      "stateMutability": "view",
      "type": "function"
    },
    {
      "inputs": [
        {
          "internalType": "address",
          "name": "to",
          "type": "address"
        },
        {
          "internalType": "string[]",
          "name": "_stringValues",
          "type": "string[]"
        },
        {
          "internalType": "uint256[]",
          "name": "_numValues",
          "type": "uint256[]"
        }
      ],
      "name": "createNFT",
      "outputs": [
        {
          "internalType": "uint256",
          "name": "",
          "type": "uint256"
        }
      ],
      "stateMutability": "nonpayable",
      "type": "function"
    },
    {
      "inputs": [
        {
          "internalType": "uint256",
          "name": "_propIndex",
          "type": "uint256"
        },
        {
          "internalType": "string",
          "name": "_propertyName",
          "type": "string"
        },
        {
          "internalType": "string",
          "name": "_propertyValue",
          "type": "string"
        }
      ],
      "name": "editGlobalProp",
      "outputs": [],
      "stateMutability": "nonpayable",
      "type": "function"
    },
    {
      "inputs": [
        {
          "internalType": "uint256",
          "name": "_propId",
          "type": "uint256"
        },
        {
          "internalType": "string",
          "name": "_key",
          "type": "string"
        },
        {
          "internalType": "bool",
          "name": "_isEditable",
          "type": "bool"
        }
      ],
      "name": "editNumericalProp",
      "outputs": [],
      "stateMutability": "nonpayable",
      "type": "function"
    },
    {
      "inputs": [
        {
          "internalType": "uint256",
          "name": "_propId",
          "type": "uint256"
        },
        {
          "internalType": "string",
          "name": "_key",
          "type": "string"
        },
        {
          "internalType": "bool",
          "name": "_isEditable",
          "type": "bool"
        }
      ],
      "name": "editStringProp",
      "outputs": [],
      "stateMutability": "nonpayable",
      "type": "function"
    },
    {
      "inputs": [
        {
          "internalType": "uint256",
          "name": "tokenId",
          "type": "uint256"
        }
      ],
      "name": "getApproved",
      "outputs": [
        {
          "internalType": "address",
          "name": "",
          "type": "address"
        }
      ],
      "stateMutability": "view",
      "type": "function"
    },
    {
      "inputs": [
        {
          "internalType": "uint256",
          "name": "_tokenId",
          "type": "uint256"
        },
        {
          "internalType": "uint256",
          "name": "_numIndex",
          "type": "uint256"
        }
      ],
      "name": "getNumericalProperty",
      "outputs": [
        {
          "internalType": "uint256",
          "name": "",
          "type": "uint256"
        }
      ],
      "stateMutability": "view",
      "type": "function"
    },
    {
      "inputs": [
        {
          "internalType": "uint256",
          "name": "_tokenId",
          "type": "uint256"
        },
        {
          "internalType": "uint256",
          "name": "_strIndex",
          "type": "uint256"
        }
      ],
      "name": "getStringProperty",
      "outputs": [
        {
          "internalType": "string",
          "name": "",
          "type": "string"
        }
      ],
      "stateMutability": "view",
      "type": "function"
    },
    {
      "inputs": [
        {
          "internalType": "uint256",
          "name": "",
          "type": "uint256"
        }
      ],
      "name": "globalMetadata",
      "outputs": [
        {
          "internalType": "string",
          "name": "",
          "type": "string"
        }
      ],
      "stateMutability": "view",
      "type": "function"
    },
    {
      "inputs": [
        {
          "internalType": "uint256",
          "name": "",
          "type": "uint256"
        }
      ],
      "name": "globalMetadataKeys",
      "outputs": [
        {
          "internalType": "string",
          "name": "",
          "type": "string"
        }
      ],
      "stateMutability": "view",
      "type": "function"
    },
    {
      "inputs": [
        {
          "internalType": "string",
          "name": "name_",
          "type": "string"
        },
        {
          "internalType": "string",
          "name": "symbol_",
          "type": "string"
        },
        {
          "internalType": "address",
          "name": "_tenant",
          "type": "address"
        },
        {
          "internalType": "string[]",
          "name": "_globalMetadataKeys",
          "type": "string[]"
        },
        {
          "internalType": "string[]",
          "name": "_globalMetadata",
          "type": "string[]"
        },
        {
          "components": [
            {
              "internalType": "string",
              "name": "propertyName",
              "type": "string"
            },
            {
              "internalType": "bool",
              "name": "editable",
              "type": "bool"
            }
          ],
          "internalType": "struct NumericalProperty[]",
          "name": "_numericalProperties",
          "type": "tuple[]"
        },
        {
          "components": [
            {
              "internalType": "string",
              "name": "propertyName",
              "type": "string"
            },
            {
              "internalType": "bool",
              "name": "editable",
              "type": "bool"
            }
          ],
          "internalType": "struct StringProperty[]",
          "name": "_stringProperties",
          "type": "tuple[]"
        }
      ],
      "name": "init",
      "outputs": [],
      "stateMutability": "nonpayable",
      "type": "function"
    },
    {
      "inputs": [],
      "name": "initialized",
      "outputs": [
        {
          "internalType": "bool",
          "name": "",
          "type": "bool"
        }
      ],
      "stateMutability": "view",
      "type": "function"
    },
    {
      "inputs": [
        {
          "internalType": "address",
          "name": "owner",
          "type": "address"
        },
        {
          "internalType": "address",
          "name": "operator",
          "type": "address"
        }
      ],
      "name": "isApprovedForAll",
      "outputs": [
        {
          "internalType": "bool",
          "name": "",
          "type": "bool"
        }
      ],
      "stateMutability": "view",
      "type": "function"
    },
    {
      "inputs": [],
      "name": "metadata",
      "outputs": [
        {
          "internalType": "bytes",
          "name": "title",
          "type": "bytes"
        },
        {
          "components": [
            {
              "internalType": "address",
              "name": "authorAddress",
              "type": "address"
            },
            {
              "internalType": "string",
              "name": "externalLink",
              "type": "string"
            }
          ],
          "internalType": "struct IHyperverseModule.Author",
          "name": "author",
          "type": "tuple"
        },
        {
          "internalType": "bytes",
          "name": "version",
          "type": "bytes"
        },
        {
          "internalType": "uint64",
          "name": "publishedAt",
          "type": "uint64"
        },
        {
          "internalType": "bytes",
          "name": "externalLink",
          "type": "bytes"
        }
      ],
      "stateMutability": "view",
      "type": "function"
    },
    {
      "inputs": [],
      "name": "name",
      "outputs": [
        {
          "internalType": "string",
          "name": "",
          "type": "string"
        }
      ],
      "stateMutability": "view",
      "type": "function"
    },
    {
      "inputs": [],
      "name": "numberIndex",
      "outputs": [
        {
          "internalType": "uint256",
          "name": "",
          "type": "uint256"
        }
      ],
      "stateMutability": "view",
      "type": "function"
    },
    {
      "inputs": [
        {
          "internalType": "uint256",
          "name": "",
          "type": "uint256"
        }
      ],
      "name": "numericalProperties",
      "outputs": [
        {
          "internalType": "string",
          "name": "propertyName",
          "type": "string"
        },
        {
          "internalType": "bool",
          "name": "editable",
          "type": "bool"
        }
      ],
      "stateMutability": "view",
      "type": "function"
    },
    {
      "inputs": [
        {
          "internalType": "uint256",
          "name": "tokenId",
          "type": "uint256"
        }
      ],
      "name": "ownerOf",
      "outputs": [
        {
          "internalType": "address",
          "name": "",
          "type": "address"
        }
      ],
      "stateMutability": "view",
      "type": "function"
    },
    {
      "inputs": [
        {
          "internalType": "address",
          "name": "from",
          "type": "address"
        },
        {
          "internalType": "address",
          "name": "to",
          "type": "address"
        },
        {
          "internalType": "uint256",
          "name": "tokenId",
          "type": "uint256"
        }
      ],
      "name": "safeTransferFrom",
      "outputs": [],
      "stateMutability": "nonpayable",
      "type": "function"
    },
    {
      "inputs": [
        {
          "internalType": "address",
          "name": "from",
          "type": "address"
        },
        {
          "internalType": "address",
          "name": "to",
          "type": "address"
        },
        {
          "internalType": "uint256",
          "name": "tokenId",
          "type": "uint256"
        },
        {
          "internalType": "bytes",
          "name": "_data",
          "type": "bytes"
        }
      ],
      "name": "safeTransferFrom",
      "outputs": [],
      "stateMutability": "nonpayable",
      "type": "function"
    },
    {
      "inputs": [
        {
          "internalType": "address",
          "name": "operator",
          "type": "address"
        },
        {
          "internalType": "bool",
          "name": "approved",
          "type": "bool"
        }
      ],
      "name": "setApprovalForAll",
      "outputs": [],
      "stateMutability": "nonpayable",
      "type": "function"
    },
    {
      "inputs": [
        {
          "internalType": "uint256",
          "name": "_tokenId",
          "type": "uint256"
        },
        {
          "internalType": "uint256",
          "name": "_propertyId",
          "type": "uint256"
        },
        {
          "internalType": "uint256",
          "name": "_value",
          "type": "uint256"
        }
      ],
      "name": "setNumericalValue",
      "outputs": [],
      "stateMutability": "nonpayable",
      "type": "function"
    },
    {
      "inputs": [
        {
          "internalType": "uint256",
          "name": "_tokenId",
          "type": "uint256"
        },
        {
          "internalType": "uint256",
          "name": "_propertyId",
          "type": "uint256"
        },
        {
          "internalType": "string",
          "name": "_value",
          "type": "string"
        }
      ],
      "name": "setStringValue",
      "outputs": [],
      "stateMutability": "nonpayable",
      "type": "function"
    },
    {
      "inputs": [],
      "name": "stringIndex",
      "outputs": [
        {
          "internalType": "uint256",
          "name": "",
          "type": "uint256"
        }
      ],
      "stateMutability": "view",
      "type": "function"
    },
    {
      "inputs": [
        {
          "internalType": "uint256",
          "name": "",
          "type": "uint256"
        }
      ],
      "name": "stringProperties",
      "outputs": [
        {
          "internalType": "string",
          "name": "propertyName",
          "type": "string"
        },
        {
          "internalType": "bool",
          "name": "editable",
          "type": "bool"
        }
      ],
      "stateMutability": "view",
      "type": "function"
    },
    {
      "inputs": [
        {
          "internalType": "bytes4",
          "name": "interfaceId",
          "type": "bytes4"
        }
      ],
      "name": "supportsInterface",
      "outputs": [
        {
          "internalType": "bool",
          "name": "",
          "type": "bool"
        }
      ],
      "stateMutability": "view",
      "type": "function"
    },
    {
      "inputs": [],
      "name": "symbol",
      "outputs": [
        {
          "internalType": "string",
          "name": "",
          "type": "string"
        }
      ],
      "stateMutability": "view",
      "type": "function"
    },
    {
      "inputs": [],
      "name": "tokenCounter",
      "outputs": [
        {
          "internalType": "uint256",
          "name": "",
          "type": "uint256"
        }
      ],
      "stateMutability": "view",
      "type": "function"
    },
    {
      "inputs": [
        {
          "internalType": "uint256",
          "name": "tokenId",
          "type": "uint256"
        }
      ],
      "name": "tokenURI",
      "outputs": [
        {
          "internalType": "string",
          "name": "",
          "type": "string"
        }
      ],
      "stateMutability": "view",
      "type": "function"
    },
    {
      "inputs": [
        {
          "internalType": "address",
          "name": "from",
          "type": "address"
        },
        {
          "internalType": "address",
          "name": "to",
          "type": "address"
        },
        {
          "internalType": "uint256",
          "name": "tokenId",
          "type": "uint256"
        }
      ],
      "name": "transferFrom",
      "outputs": [],
      "stateMutability": "nonpayable",
      "type": "function"
    }
  ],
  "bytecode": "0x60a06040523480156200001157600080fd5b506040518060a001604052806040518060400160405280601581526020017f44796e616d696320455243373231204d6f64756c650000000000000000000000815250815260200160405180604001604052803373ffffffffffffffffffffffffffffffffffffffff1681526020016040518060400160405280601881526020017f68747470733a2f2f65787465726e616c6c696e6b2e6e6574000000000000000081525081525081526020016040518060400160405280600581526020017f312e302e30000000000000000000000000000000000000000000000000000000815250815260200165032a361e860667ffffffffffffffff1681526020016040518060400160405280601881526020017f68747470733a2f2f65787465726e616c6c696e6b2e6e65740000000000000000815250815250600e60008201518160000190805190602001906200016792919062000286565b5060208201518160010160008201518160000160006101000a81548173ffffffffffffffffffffffffffffffffffffffff021916908373ffffffffffffffffffffffffffffffffffffffff1602179055506020820151816001019080519060200190620001d692919062000317565b5050506040820151816003019080519060200190620001f792919062000286565b5060608201518160040160006101000a81548167ffffffffffffffff021916908367ffffffffffffffff16021790555060808201518160050190805190602001906200024592919062000286565b509050503373ffffffffffffffffffffffffffffffffffffffff1660808173ffffffffffffffffffffffffffffffffffffffff1660601b815250506200042c565b8280546200029490620003c7565b90600052602060002090601f016020900481019282620002b8576000855562000304565b82601f10620002d357805160ff191683800117855562000304565b8280016001018555821562000304579182015b8281111562000303578251825591602001919060010190620002e6565b5b509050620003139190620003a8565b5090565b8280546200032590620003c7565b90600052602060002090601f01602090048101928262000349576000855562000395565b82601f106200036457805160ff191683800117855562000395565b8280016001018555821562000395579182015b828111156200039457825182559160200191906001019062000377565b5b509050620003a49190620003a8565b5090565b5b80821115620003c3576000816000905550600101620003a9565b5090565b60006002820490506001821680620003e057607f821691505b60208210811415620003f757620003f6620003fd565b5b50919050565b7f4e487b7100000000000000000000000000000000000000000000000000000000600052602260045260246000fd5b60805160601c615bb06200044b600039600061213e0152615bb06000f3fe608060405234801561001057600080fd5b506004361061021c5760003560e01c80634f1c5be61161012557806395d89b41116100ad578063ce606ee01161007c578063ce606ee014610672578063d082e38114610690578063d6014cc1146106ae578063e20e04b3146106df578063e985e9c51461070f5761021c565b806395d89b41146105ec578063a22cb4651461060a578063b88d4fde14610626578063c87b56dd146106425761021c565b806370a08231116100f457806370a0823114610538578063811a18c91461056857806386276e941461058457806389cdde36146105a05780638d15726e146105d05761021c565b80634f1c5be61461049e578063555eff95146104ba5780636352211e146104d857806366ffa910146105085761021c565b80631dd57acc116101a8578063392f37e911610177578063392f37e9146103f75780633e76549b1461041957806342842e0e1461043557806343affe891461045157806343b5cb57146104825761021c565b80631dd57acc146103715780631f6c9d07146103a157806323b872dd146103bd57806332afcd56146103d95761021c565b8063081812fc116101ef578063081812fc146102bb578063095ea7b3146102eb57806314eb3ac914610307578063158ef93e1461033757806317f63112146103555761021c565b8063014ade7e1461022157806301bdb48f1461025157806301ffc9a71461026d57806306fdde031461029d575b600080fd5b61023b60048036038101906102369190613ce7565b61073f565b6040516102489190614e12565b60405180910390f35b61026b60048036038101906102669190614169565b61097f565b005b61028760048036038101906102829190613dde565b610a9b565b60405161029491906149f6565b60405180910390f35b6102a5610b7d565b6040516102b29190614a80565b60405180910390f35b6102d560048036038101906102d0919061401e565b610c0f565b6040516102e2919061498f565b60405180910390f35b61030560048036038101906103009190613da2565b610c94565b005b610321600480360381019061031c919061401e565b610dac565b60405161032e9190614a80565b60405180910390f35b61033f610e58565b60405161034c91906149f6565b60405180910390f35b61036f600480360381019061036a9190613e30565b610e6b565b005b61038b6004803603810190610386919061401e565b610f09565b6040516103989190614a80565b60405180910390f35b6103bb60048036038101906103b691906141d0565b610fb5565b005b6103d760048036038101906103d29190613c1d565b6110c1565b005b6103e1611121565b6040516103ee9190614e12565b60405180910390f35b6103ff611127565b604051610410959493929190614a11565b60405180910390f35b610433600480360381019061042e9190613e30565b6113e9565b005b61044f600480360381019061044a9190613c1d565b611487565b005b61046b6004803603810190610466919061401e565b6114a7565b604051610479929190614aa2565b60405180910390f35b61049c60048036038101906104979190613e84565b611560565b005b6104b860048036038101906104b39190614047565b6115fe565b005b6104c261169e565b6040516104cf9190614e12565b60405180910390f35b6104f260048036038101906104ed919061401e565b6116a4565b6040516104ff919061498f565b60405180910390f35b610522600480360381019061051d919061412d565b611756565b60405161052f9190614a80565b60405180910390f35b610552600480360381019061054d9190613bb8565b611810565b60405161055f9190614e12565b60405180910390f35b610582600480360381019061057d9190614047565b6118c8565b005b61059e60048036038101906105999190613ef0565b611968565b005b6105ba60048036038101906105b5919061401e565b6119d0565b6040516105c79190614a80565b60405180910390f35b6105ea60048036038101906105e591906140ae565b611f38565b005b6105f4611fd8565b6040516106019190614a80565b60405180910390f35b610624600480360381019061061f9190613d66565b61206a565b005b610640600480360381019061063b9190613c6c565b612080565b005b61065c6004803603810190610657919061401e565b6120e2565b6040516106699190614a80565b60405180910390f35b61067a61213c565b604051610687919061498f565b60405180910390f35b610698612160565b6040516106a59190614e12565b60405180910390f35b6106c860048036038101906106c3919061401e565b612166565b6040516106d6929190614aa2565b60405180910390f35b6106f960048036038101906106f4919061412d565b61221f565b6040516107069190614e12565b60405180910390f35b61072960048036038101906107249190613be1565b612251565b60405161073691906149f6565b60405180910390f35b6000601660009054906101000a900473ffffffffffffffffffffffffffffffffffffffff1673ffffffffffffffffffffffffffffffffffffffff163373ffffffffffffffffffffffffffffffffffffffff16146107d1576040517f08c379a00000000000000000000000000000000000000000000000000000000081526004016107c890614cf2565b60405180910390fd5b60055482511480156107e557506003548351145b610824576040517f08c379a000000000000000000000000000000000000000000000000000000000815260040161081b90614c72565b60405180910390fd5b6000601554905061083585826122e5565b60006006600083815260200190815260200160002090506000816000019050600082600101905060005b6003548110156108e3578781815181106108a2577f4e487b7100000000000000000000000000000000000000000000000000000000600052603260045260246000fd5b602002602001015183600083815260200190815260200160002090805190602001906108cf92919061366e565b5080806108db90615268565b91505061085f565b5060005b60055481101561095b5786818151811061092a577f4e487b7100000000000000000000000000000000000000000000000000000000600052603260045260246000fd5b602002602001015182600083815260200190815260200160002081905550808061095390615268565b9150506108e7565b50600160155461096b9190614fe2565b601581905550839450505050509392505050565b823373ffffffffffffffffffffffffffffffffffffffff166109a0826116a4565b73ffffffffffffffffffffffffffffffffffffffff16146109f6576040517f08c379a00000000000000000000000000000000000000000000000000000000081526004016109ed90614ad2565b60405180910390fd5b6002600084815260200190815260200160002060010160009054906101000a900460ff16610a59576040517f08c379a0000000000000000000000000000000000000000000000000000000008152600401610a5090614af2565b60405180910390fd5b816006600086815260200190815260200160002060000160008581526020019081526020016000209080519060200190610a9492919061366e565b5050505050565b60007f80ac58cd000000000000000000000000000000000000000000000000000000007bffffffffffffffffffffffffffffffffffffffffffffffffffffffff1916827bffffffffffffffffffffffffffffffffffffffffffffffffffffffff19161480610b6657507f5b5e139f000000000000000000000000000000000000000000000000000000007bffffffffffffffffffffffffffffffffffffffffffffffffffffffff1916827bffffffffffffffffffffffffffffffffffffffffffffffffffffffff1916145b80610b765750610b7582612303565b5b9050919050565b606060078054610b8c90615205565b80601f0160208091040260200160405190810160405280929190818152602001828054610bb890615205565b8015610c055780601f10610bda57610100808354040283529160200191610c05565b820191906000526020600020905b815481529060010190602001808311610be857829003601f168201915b5050505050905090565b6000610c1a8261236d565b610c59576040517f08c379a0000000000000000000000000000000000000000000000000000000008152600401610c5090614cb2565b60405180910390fd5b600c600083815260200190815260200160002060009054906101000a900473ffffffffffffffffffffffffffffffffffffffff169050919050565b6000610c9f826116a4565b90508073ffffffffffffffffffffffffffffffffffffffff168373ffffffffffffffffffffffffffffffffffffffff161415610d10576040517f08c379a0000000000000000000000000000000000000000000000000000000008152600401610d0790614d12565b60405180910390fd5b8073ffffffffffffffffffffffffffffffffffffffff16610d2f6123d9565b73ffffffffffffffffffffffffffffffffffffffff161480610d5e5750610d5d81610d586123d9565b612251565b5b610d9d576040517f08c379a0000000000000000000000000000000000000000000000000000000008152600401610d9490614bf2565b60405180910390fd5b610da783836123e1565b505050565b60008181548110610dbc57600080fd5b906000526020600020016000915090508054610dd790615205565b80601f0160208091040260200160405190810160405280929190818152602001828054610e0390615205565b8015610e505780601f10610e2557610100808354040283529160200191610e50565b820191906000526020600020905b815481529060010190602001808311610e3357829003601f168201915b505050505081565b600960009054906101000a900460ff1681565b601660009054906101000a900473ffffffffffffffffffffffffffffffffffffffff1673ffffffffffffffffffffffffffffffffffffffff163373ffffffffffffffffffffffffffffffffffffffff1614610efb576040517f08c379a0000000000000000000000000000000000000000000000000000000008152600401610ef290614d92565b60405180910390fd5b610f05828261249a565b5050565b60018181548110610f1957600080fd5b906000526020600020016000915090508054610f3490615205565b80601f0160208091040260200160405190810160405280929190818152602001828054610f6090615205565b8015610fad5780601f10610f8257610100808354040283529160200191610fad565b820191906000526020600020905b815481529060010190602001808311610f9057829003601f168201915b505050505081565b823373ffffffffffffffffffffffffffffffffffffffff16610fd6826116a4565b73ffffffffffffffffffffffffffffffffffffffff161461102c576040517f08c379a000000000000000000000000000000000000000000000000000000000815260040161102390614ad2565b60405180910390fd5b6004600084815260200190815260200160002060010160009054906101000a900460ff1661108f576040517f08c379a000000000000000000000000000000000000000000000000000000000815260040161108690614af2565b60405180910390fd5b816006600086815260200190815260200160002060010160008581526020019081526020016000208190555050505050565b6110d26110cc6123d9565b82612522565b611111576040517f08c379a000000000000000000000000000000000000000000000000000000000815260040161110890614db2565b60405180910390fd5b61111c838383612600565b505050565b60035481565b600e80600001805461113890615205565b80601f016020809104026020016040519081016040528092919081815260200182805461116490615205565b80156111b15780601f10611186576101008083540402835291602001916111b1565b820191906000526020600020905b81548152906001019060200180831161119457829003601f168201915b505050505090806001016040518060400160405290816000820160009054906101000a900473ffffffffffffffffffffffffffffffffffffffff1673ffffffffffffffffffffffffffffffffffffffff1673ffffffffffffffffffffffffffffffffffffffff16815260200160018201805461122c90615205565b80601f016020809104026020016040519081016040528092919081815260200182805461125890615205565b80156112a55780601f1061127a576101008083540402835291602001916112a5565b820191906000526020600020905b81548152906001019060200180831161128857829003601f168201915b505050505081525050908060030180546112be90615205565b80601f01602080910402602001604051908101604052809291908181526020018280546112ea90615205565b80156113375780601f1061130c57610100808354040283529160200191611337565b820191906000526020600020905b81548152906001019060200180831161131a57829003601f168201915b5050505050908060040160009054906101000a900467ffffffffffffffff169080600501805461136690615205565b80601f016020809104026020016040519081016040528092919081815260200182805461139290615205565b80156113df5780601f106113b4576101008083540402835291602001916113df565b820191906000526020600020905b8154815290600101906020018083116113c257829003601f168201915b5050505050905085565b601660009054906101000a900473ffffffffffffffffffffffffffffffffffffffff1673ffffffffffffffffffffffffffffffffffffffff163373ffffffffffffffffffffffffffffffffffffffff1614611479576040517f08c379a000000000000000000000000000000000000000000000000000000000815260040161147090614d72565b60405180910390fd5b6114838282612867565b5050565b6114a283838360405180602001604052806000815250612080565b505050565b60046020528060005260406000206000915090508060000180546114ca90615205565b80601f01602080910402602001604051908101604052809291908181526020018280546114f690615205565b80156115435780601f1061151857610100808354040283529160200191611543565b820191906000526020600020905b81548152906001019060200180831161152657829003601f168201915b5050505050908060010160009054906101000a900460ff16905082565b601660009054906101000a900473ffffffffffffffffffffffffffffffffffffffff1673ffffffffffffffffffffffffffffffffffffffff163373ffffffffffffffffffffffffffffffffffffffff16146115f0576040517f08c379a00000000000000000000000000000000000000000000000000000000081526004016115e790614c52565b60405180910390fd5b6115fa82826128ef565b5050565b601660009054906101000a900473ffffffffffffffffffffffffffffffffffffffff1673ffffffffffffffffffffffffffffffffffffffff163373ffffffffffffffffffffffffffffffffffffffff161461168e576040517f08c379a000000000000000000000000000000000000000000000000000000000815260040161168590614d32565b60405180910390fd5b61169983838361296b565b505050565b60055481565b600080600a600084815260200190815260200160002060009054906101000a900473ffffffffffffffffffffffffffffffffffffffff169050600073ffffffffffffffffffffffffffffffffffffffff168173ffffffffffffffffffffffffffffffffffffffff16141561174d576040517f08c379a000000000000000000000000000000000000000000000000000000000815260040161174490614c32565b60405180910390fd5b80915050919050565b6060600660008481526020019081526020016000206000016000838152602001908152602001600020805461178a90615205565b80601f01602080910402602001604051908101604052809291908181526020018280546117b690615205565b80156118035780601f106117d857610100808354040283529160200191611803565b820191906000526020600020905b8154815290600101906020018083116117e657829003601f168201915b5050505050905092915050565b60008073ffffffffffffffffffffffffffffffffffffffff168273ffffffffffffffffffffffffffffffffffffffff161415611881576040517f08c379a000000000000000000000000000000000000000000000000000000000815260040161187890614c12565b60405180910390fd5b600b60008373ffffffffffffffffffffffffffffffffffffffff1673ffffffffffffffffffffffffffffffffffffffff168152602001908152602001600020549050919050565b601660009054906101000a900473ffffffffffffffffffffffffffffffffffffffff1673ffffffffffffffffffffffffffffffffffffffff163373ffffffffffffffffffffffffffffffffffffffff1614611958576040517f08c379a000000000000000000000000000000000000000000000000000000000815260040161194f90614b12565b60405180910390fd5b6119638383836129da565b505050565b6119728787612a49565b61197e84848484612ae6565b84601660006101000a81548173ffffffffffffffffffffffffffffffffffffffff021916908373ffffffffffffffffffffffffffffffffffffffff160217905550600060158190555050505050505050565b606060006040518060400160405280600281526020017f7b0a0000000000000000000000000000000000000000000000000000000000008152509050600060066000858152602001908152602001600020905060005b600080549050811015611bd75782604051602001611a449190614929565b60405160208183030381529060405292508260018281548110611a90577f4e487b7100000000000000000000000000000000000000000000000000000000600052603260045260246000fd5b90600052602060002001604051602001611aab9291906148bf565b604051602081830303815290604052925082604051602001611acd919061494b565b604051602081830303815290604052925082604051602001611aef9190614929565b60405160208183030381529060405292508260008281548110611b3b577f4e487b7100000000000000000000000000000000000000000000000000000000600052603260045260246000fd5b90600052602060002001604051602001611b569291906148e3565b604051602081830303815290604052925082604051602001611b789190614929565b60405160208183030381529060405292506001600080549050611b9b91906150fa565b8114611bc45782604051602001611bb29190614907565b60405160208183030381529060405292505b8080611bcf90615268565b915050611a26565b5060008080549050118015611bfb575060006005541180611bfa57506000600354115b5b15611c235781604051602001611c119190614907565b60405160208183030381529060405291505b60005b600354811015611d745782604051602001611c419190614929565b60405160208183030381529060405292508260026000838152602001908152602001600020600001604051602001611c7a9291906148bf565b604051602081830303815290604052925082604051602001611c9c919061494b565b604051602081830303815290604052925082604051602001611cbe9190614929565b604051602081830303815290604052925082826000016000838152602001908152602001600020604051602001611cf69291906148e3565b604051602081830303815290604052925082604051602001611d189190614929565b60405160208183030381529060405292506001600354611d3891906150fa565b8114611d615782604051602001611d4f9190614907565b60405160208183030381529060405292505b8080611d6c90615268565b915050611c26565b506000600354118015611d8957506000600554115b15611db15781604051602001611d9f9190614907565b60405160208183030381529060405291505b60005b600554811015611f0b5782604051602001611dcf9190614929565b60405160208183030381529060405292508260046000838152602001908152602001600020600001604051602001611e089291906148bf565b604051602081830303815290604052925082604051602001611e2a919061494b565b604051602081830303815290604052925082604051602001611e4c9190614929565b604051602081830303815290604052925082611e7c83600101600084815260200190815260200160002054612e20565b604051602001611e8d92919061489b565b604051602081830303815290604052925082604051602001611eaf9190614929565b60405160208183030381529060405292506001600554611ecf91906150fa565b8114611ef85782604051602001611ee69190614907565b60405160208183030381529060405292505b8080611f0390615268565b915050611db4565b5081604051602001611f1d919061496d565b60405160208183030381529060405291508192505050919050565b601660009054906101000a900473ffffffffffffffffffffffffffffffffffffffff1673ffffffffffffffffffffffffffffffffffffffff163373ffffffffffffffffffffffffffffffffffffffff1614611fc8576040517f08c379a0000000000000000000000000000000000000000000000000000000008152600401611fbf90614df2565b60405180910390fd5b611fd3838383612ff5565b505050565b606060088054611fe790615205565b80601f016020809104026020016040519081016040528092919081815260200182805461201390615205565b80156120605780601f1061203557610100808354040283529160200191612060565b820191906000526020600020905b81548152906001019060200180831161204357829003601f168201915b5050505050905090565b61207c6120756123d9565b83836130ac565b5050565b61209161208b6123d9565b83612522565b6120d0576040517f08c379a00000000000000000000000000000000000000000000000000000000081526004016120c790614db2565b60405180910390fd5b6120dc84848484613219565b50505050565b60606120ed8261236d565b61212c576040517f08c379a000000000000000000000000000000000000000000000000000000000815260040161212390614cd2565b60405180910390fd5b612135826119d0565b9050919050565b7f000000000000000000000000000000000000000000000000000000000000000081565b60155481565b600260205280600052604060002060009150905080600001805461218990615205565b80601f01602080910402602001604051908101604052809291908181526020018280546121b590615205565b80156122025780601f106121d757610100808354040283529160200191612202565b820191906000526020600020905b8154815290600101906020018083116121e557829003601f168201915b5050505050908060010160009054906101000a900460ff16905082565b600060066000848152602001908152602001600020600101600083815260200190815260200160002054905092915050565b6000600d60008473ffffffffffffffffffffffffffffffffffffffff1673ffffffffffffffffffffffffffffffffffffffff16815260200190815260200160002060008373ffffffffffffffffffffffffffffffffffffffff1673ffffffffffffffffffffffffffffffffffffffff16815260200190815260200160002060009054906101000a900460ff16905092915050565b6122ff828260405180602001604052806000815250613275565b5050565b60007f01ffc9a7000000000000000000000000000000000000000000000000000000007bffffffffffffffffffffffffffffffffffffffffffffffffffffffff1916827bffffffffffffffffffffffffffffffffffffffffffffffffffffffff1916149050919050565b60008073ffffffffffffffffffffffffffffffffffffffff16600a600084815260200190815260200160002060009054906101000a900473ffffffffffffffffffffffffffffffffffffffff1673ffffffffffffffffffffffffffffffffffffffff1614159050919050565b600033905090565b81600c600083815260200190815260200160002060006101000a81548173ffffffffffffffffffffffffffffffffffffffff021916908373ffffffffffffffffffffffffffffffffffffffff160217905550808273ffffffffffffffffffffffffffffffffffffffff16612454836116a4565b73ffffffffffffffffffffffffffffffffffffffff167f8c5be1e5ebec7d5bd14f71427d1e84f3dd0314c0f7b2291e5b200ac8c7c3b92560405160405180910390a45050565b604051806040016040528083815260200182151581525060026000600354815260200190815260200160002060008201518160000190805190602001906124e292919061366e565b5060208201518160010160006101000a81548160ff0219169083151502179055509050506003600081548092919061251990615268565b91905055505050565b600061252d8261236d565b61256c576040517f08c379a000000000000000000000000000000000000000000000000000000000815260040161256390614bd2565b60405180910390fd5b6000612577836116a4565b90508073ffffffffffffffffffffffffffffffffffffffff168473ffffffffffffffffffffffffffffffffffffffff1614806125e657508373ffffffffffffffffffffffffffffffffffffffff166125ce84610c0f565b73ffffffffffffffffffffffffffffffffffffffff16145b806125f757506125f68185612251565b5b91505092915050565b8273ffffffffffffffffffffffffffffffffffffffff16612620826116a4565b73ffffffffffffffffffffffffffffffffffffffff1614612676576040517f08c379a000000000000000000000000000000000000000000000000000000000815260040161266d90614b52565b60405180910390fd5b600073ffffffffffffffffffffffffffffffffffffffff168273ffffffffffffffffffffffffffffffffffffffff1614156126e6576040517f08c379a00000000000000000000000000000000000000000000000000000000081526004016126dd90614b92565b60405180910390fd5b6126f18383836132d0565b6126fc6000826123e1565b6001600b60008573ffffffffffffffffffffffffffffffffffffffff1673ffffffffffffffffffffffffffffffffffffffff168152602001908152602001600020600082825461274c91906150fa565b925050819055506001600b60008473ffffffffffffffffffffffffffffffffffffffff1673ffffffffffffffffffffffffffffffffffffffff16815260200190815260200160002060008282546127a39190614fe2565b9250508190555081600a600083815260200190815260200160002060006101000a81548173ffffffffffffffffffffffffffffffffffffffff021916908373ffffffffffffffffffffffffffffffffffffffff160217905550808273ffffffffffffffffffffffffffffffffffffffff168473ffffffffffffffffffffffffffffffffffffffff167fddf252ad1be2c89b69c2b068fc378daa952ba7f163c4a11628f55a4df523b3ef60405160405180910390a46128628383836132d5565b505050565b604051806040016040528083815260200182151581525060046000600554815260200190815260200160002060008201518160000190805190602001906128af92919061366e565b5060208201518160010160006101000a81548160ff021916908315150217905550905050600560008154809291906128e690615268565b91905055505050565b60018290806001815401808255809150506001900390600052602060002001600090919091909150908051906020019061292a92919061366e565b5060008190806001815401808255809150506001900390600052602060002001600090919091909150908051906020019061296692919061366e565b505050565b60405180604001604052808381526020018215158152506004600085815260200190815260200160002060008201518160000190805190602001906129b192919061366e565b5060208201518160010160006101000a81548160ff021916908315150217905550905050505050565b6040518060400160405280838152602001821515815250600260008581526020019081526020016000206000820151816000019080519060200190612a2092919061366e565b5060208201518160010160006101000a81548160ff021916908315150217905550905050505050565b600960009054906101000a900460ff1615612a99576040517f08c379a0000000000000000000000000000000000000000000000000000000008152600401612a9090614dd2565b60405180910390fd5b8160079080519060200190612aaf92919061366e565b508060089080519060200190612ac692919061366e565b506001600960006101000a81548160ff0219169083151502179055505050565b8351835114612b2a576040517f08c379a0000000000000000000000000000000000000000000000000000000008152600401612b2190614d52565b60405180910390fd5b60005b8351811015612bc5576000848281518110612b71577f4e487b7100000000000000000000000000000000000000000000000000000000600052603260045260246000fd5b6020026020010151908060018154018082558091505060019003906000526020600020016000909190919091509080519060200190612bb192919061366e565b508080612bbd90615268565b915050612b2d565b5060005b8251811015612cef576040518060400160405280848381518110612c16577f4e487b7100000000000000000000000000000000000000000000000000000000600052603260045260246000fd5b6020026020010151600001518152602001848381518110612c60577f4e487b7100000000000000000000000000000000000000000000000000000000600052603260045260246000fd5b6020026020010151602001511515815250600460008381526020019081526020016000206000820151816000019080519060200190612ca092919061366e565b5060208201518160010160006101000a81548160ff02191690831515021790555090505060056000815480929190612cd790615268565b91905055508080612ce790615268565b915050612bc9565b5060005b8151811015612e19576040518060400160405280838381518110612d40577f4e487b7100000000000000000000000000000000000000000000000000000000600052603260045260246000fd5b6020026020010151600001518152602001838381518110612d8a577f4e487b7100000000000000000000000000000000000000000000000000000000600052603260045260246000fd5b6020026020010151602001511515815250600260008381526020019081526020016000206000820151816000019080519060200190612dca92919061366e565b5060208201518160010160006101000a81548160ff02191690831515021790555090505060036000815480929190612e0190615268565b91905055508080612e1190615268565b915050612cf3565b5050505050565b60606000821415612e68576040518060400160405280600181526020017f30000000000000000000000000000000000000000000000000000000000000008152509050612ff0565b600082905060005b60008214612e9a578080612e8390615268565b915050600a82612e93919061506f565b9150612e70565b60008167ffffffffffffffff811115612edc577f4e487b7100000000000000000000000000000000000000000000000000000000600052604160045260246000fd5b6040519080825280601f01601f191660200182016040528015612f0e5781602001600182028036833780820191505090505b50905060008290505b60008614612fe857600181612f2c91906150fa565b90506000600a8088612f3e919061506f565b612f4891906150a0565b87612f5391906150fa565b6030612f5f9190615038565b905060008160f81b905080848481518110612fa3577f4e487b7100000000000000000000000000000000000000000000000000000000600052603260045260246000fd5b60200101907effffffffffffffffffffffffffffffffffffffffffffffffffffffffffffff1916908160001a905350600a88612fdf919061506f565b97505050612f17565b819450505050505b919050565b8160018481548110613030577f4e487b7100000000000000000000000000000000000000000000000000000000600052603260045260246000fd5b90600052602060002001908051906020019061304d92919061366e565b508060008481548110613089577f4e487b7100000000000000000000000000000000000000000000000000000000600052603260045260246000fd5b9060005260206000200190805190602001906130a692919061366e565b50505050565b8173ffffffffffffffffffffffffffffffffffffffff168373ffffffffffffffffffffffffffffffffffffffff16141561311b576040517f08c379a000000000000000000000000000000000000000000000000000000000815260040161311290614bb2565b60405180910390fd5b80600d60008573ffffffffffffffffffffffffffffffffffffffff1673ffffffffffffffffffffffffffffffffffffffff16815260200190815260200160002060008473ffffffffffffffffffffffffffffffffffffffff1673ffffffffffffffffffffffffffffffffffffffff16815260200190815260200160002060006101000a81548160ff0219169083151502179055508173ffffffffffffffffffffffffffffffffffffffff168373ffffffffffffffffffffffffffffffffffffffff167f17307eab39ab6107e8899845ad3d59bd9653f200f220920489ca2b5937696c318360405161320c91906149f6565b60405180910390a3505050565b613224848484612600565b613230848484846132da565b61326f576040517f08c379a000000000000000000000000000000000000000000000000000000000815260040161326690614b32565b60405180910390fd5b50505050565b61327f8383613471565b61328c60008484846132da565b6132cb576040517f08c379a00000000000000000000000000000000000000000000000000000000081526004016132c290614b32565b60405180910390fd5b505050565b505050565b505050565b60006132fb8473ffffffffffffffffffffffffffffffffffffffff1661364b565b15613464578373ffffffffffffffffffffffffffffffffffffffff1663150b7a026133246123d9565b8786866040518563ffffffff1660e01b815260040161334694939291906149aa565b602060405180830381600087803b15801561336057600080fd5b505af192505050801561339157506040513d601f19601f8201168201806040525081019061338e9190613e07565b60015b613414573d80600081146133c1576040519150601f19603f3d011682016040523d82523d6000602084013e6133c6565b606091505b5060008151141561340c576040517f08c379a000000000000000000000000000000000000000000000000000000000815260040161340390614b32565b60405180910390fd5b805181602001fd5b63150b7a0260e01b7bffffffffffffffffffffffffffffffffffffffffffffffffffffffff1916817bffffffffffffffffffffffffffffffffffffffffffffffffffffffff191614915050613469565b600190505b949350505050565b600073ffffffffffffffffffffffffffffffffffffffff168273ffffffffffffffffffffffffffffffffffffffff1614156134e1576040517f08c379a00000000000000000000000000000000000000000000000000000000081526004016134d890614c92565b60405180910390fd5b6134ea8161236d565b1561352a576040517f08c379a000000000000000000000000000000000000000000000000000000000815260040161352190614b72565b60405180910390fd5b613536600083836132d0565b6001600b60008473ffffffffffffffffffffffffffffffffffffffff1673ffffffffffffffffffffffffffffffffffffffff16815260200190815260200160002060008282546135869190614fe2565b9250508190555081600a600083815260200190815260200160002060006101000a81548173ffffffffffffffffffffffffffffffffffffffff021916908373ffffffffffffffffffffffffffffffffffffffff160217905550808273ffffffffffffffffffffffffffffffffffffffff16600073ffffffffffffffffffffffffffffffffffffffff167fddf252ad1be2c89b69c2b068fc378daa952ba7f163c4a11628f55a4df523b3ef60405160405180910390a4613647600083836132d5565b5050565b6000808273ffffffffffffffffffffffffffffffffffffffff163b119050919050565b82805461367a90615205565b90600052602060002090601f01602090048101928261369c57600085556136e3565b82601f106136b557805160ff19168380011785556136e3565b828001600101855582156136e3579182015b828111156136e25782518255916020019190600101906136c7565b5b5090506136f091906136f4565b5090565b5b8082111561370d5760008160009055506001016136f5565b5090565b600061372461371f84614e52565b614e2d565b9050808382526020820190508285602086028201111561374357600080fd5b60005b8581101561378d57813567ffffffffffffffff81111561376557600080fd5b8086016137728982613ab1565b85526020850194506020840193505050600181019050613746565b5050509392505050565b60006137aa6137a584614e7e565b614e2d565b905080838252602082019050828560208602820111156137c957600080fd5b60005b8581101561381357813567ffffffffffffffff8111156137eb57600080fd5b8086016137f88982613adb565b855260208501945060208401935050506001810190506137cc565b5050509392505050565b600061383061382b84614eaa565b614e2d565b9050808382526020820190508285602086028201111561384f57600080fd5b60005b8581101561389957813567ffffffffffffffff81111561387157600080fd5b80860161387e8982613b3f565b85526020850194506020840193505050600181019050613852565b5050509392505050565b60006138b66138b184614ed6565b614e2d565b905080838252602082019050828560208602820111156138d557600080fd5b60005b8581101561390557816138eb8882613ba3565b8452602084019350602083019250506001810190506138d8565b5050509392505050565b600061392261391d84614f02565b614e2d565b90508281526020810184848401111561393a57600080fd5b6139458482856151c3565b509392505050565b600061396061395b84614f33565b614e2d565b90508281526020810184848401111561397857600080fd5b6139838482856151c3565b509392505050565b60008135905061399a81615b1e565b92915050565b600082601f8301126139b157600080fd5b81356139c1848260208601613711565b91505092915050565b600082601f8301126139db57600080fd5b81356139eb848260208601613797565b91505092915050565b600082601f830112613a0557600080fd5b8135613a1584826020860161381d565b91505092915050565b600082601f830112613a2f57600080fd5b8135613a3f8482602086016138a3565b91505092915050565b600081359050613a5781615b35565b92915050565b600081359050613a6c81615b4c565b92915050565b600081519050613a8181615b4c565b92915050565b600082601f830112613a9857600080fd5b8135613aa884826020860161390f565b91505092915050565b600082601f830112613ac257600080fd5b8135613ad284826020860161394d565b91505092915050565b600060408284031215613aed57600080fd5b613af76040614e2d565b9050600082013567ffffffffffffffff811115613b1357600080fd5b613b1f84828501613ab1565b6000830152506020613b3384828501613a48565b60208301525092915050565b600060408284031215613b5157600080fd5b613b5b6040614e2d565b9050600082013567ffffffffffffffff811115613b7757600080fd5b613b8384828501613ab1565b6000830152506020613b9784828501613a48565b60208301525092915050565b600081359050613bb281615b63565b92915050565b600060208284031215613bca57600080fd5b6000613bd88482850161398b565b91505092915050565b60008060408385031215613bf457600080fd5b6000613c028582860161398b565b9250506020613c138582860161398b565b9150509250929050565b600080600060608486031215613c3257600080fd5b6000613c408682870161398b565b9350506020613c518682870161398b565b9250506040613c6286828701613ba3565b9150509250925092565b60008060008060808587031215613c8257600080fd5b6000613c908782880161398b565b9450506020613ca18782880161398b565b9350506040613cb287828801613ba3565b925050606085013567ffffffffffffffff811115613ccf57600080fd5b613cdb87828801613a87565b91505092959194509250565b600080600060608486031215613cfc57600080fd5b6000613d0a8682870161398b565b935050602084013567ffffffffffffffff811115613d2757600080fd5b613d33868287016139a0565b925050604084013567ffffffffffffffff811115613d5057600080fd5b613d5c86828701613a1e565b9150509250925092565b60008060408385031215613d7957600080fd5b6000613d878582860161398b565b9250506020613d9885828601613a48565b9150509250929050565b60008060408385031215613db557600080fd5b6000613dc38582860161398b565b9250506020613dd485828601613ba3565b9150509250929050565b600060208284031215613df057600080fd5b6000613dfe84828501613a5d565b91505092915050565b600060208284031215613e1957600080fd5b6000613e2784828501613a72565b91505092915050565b60008060408385031215613e4357600080fd5b600083013567ffffffffffffffff811115613e5d57600080fd5b613e6985828601613ab1565b9250506020613e7a85828601613a48565b9150509250929050565b60008060408385031215613e9757600080fd5b600083013567ffffffffffffffff811115613eb157600080fd5b613ebd85828601613ab1565b925050602083013567ffffffffffffffff811115613eda57600080fd5b613ee685828601613ab1565b9150509250929050565b600080600080600080600060e0888a031215613f0b57600080fd5b600088013567ffffffffffffffff811115613f2557600080fd5b613f318a828b01613ab1565b975050602088013567ffffffffffffffff811115613f4e57600080fd5b613f5a8a828b01613ab1565b9650506040613f6b8a828b0161398b565b955050606088013567ffffffffffffffff811115613f8857600080fd5b613f948a828b016139a0565b945050608088013567ffffffffffffffff811115613fb157600080fd5b613fbd8a828b016139a0565b93505060a088013567ffffffffffffffff811115613fda57600080fd5b613fe68a828b016139ca565b92505060c088013567ffffffffffffffff81111561400357600080fd5b61400f8a828b016139f4565b91505092959891949750929550565b60006020828403121561403057600080fd5b600061403e84828501613ba3565b91505092915050565b60008060006060848603121561405c57600080fd5b600061406a86828701613ba3565b935050602084013567ffffffffffffffff81111561408757600080fd5b61409386828701613ab1565b92505060406140a486828701613a48565b9150509250925092565b6000806000606084860312156140c357600080fd5b60006140d186828701613ba3565b935050602084013567ffffffffffffffff8111156140ee57600080fd5b6140fa86828701613ab1565b925050604084013567ffffffffffffffff81111561411757600080fd5b61412386828701613ab1565b9150509250925092565b6000806040838503121561414057600080fd5b600061414e85828601613ba3565b925050602061415f85828601613ba3565b9150509250929050565b60008060006060848603121561417e57600080fd5b600061418c86828701613ba3565b935050602061419d86828701613ba3565b925050604084013567ffffffffffffffff8111156141ba57600080fd5b6141c686828701613ab1565b9150509250925092565b6000806000606084860312156141e557600080fd5b60006141f386828701613ba3565b935050602061420486828701613ba3565b925050604061421586828701613ba3565b9150509250925092565b6142288161512e565b82525050565b6142378161512e565b82525050565b61424681615140565b82525050565b600061425782614f8e565b6142618185614fa4565b93506142718185602086016151d2565b61427a8161536d565b840191505092915050565b600061429082614f99565b61429a8185614fb5565b93506142aa8185602086016151d2565b6142b38161536d565b840191505092915050565b60006142c982614f99565b6142d38185614fc6565b93506142e38185602086016151d2565b6142ec8161536d565b840191505092915050565b600061430282614f99565b61430c8185614fd7565b935061431c8185602086016151d2565b80840191505092915050565b6000815461433581615205565b61433f8186614fd7565b9450600182166000811461435a576001811461436b5761439e565b60ff1983168652818601935061439e565b61437485614f79565b60005b8381101561439657815481890152600182019150602081019050614377565b838801955050505b50505092915050565b600081546143b481615205565b6143be8186614fd7565b945060018216600081146143d957600181146143ea5761441d565b60ff1983168652818601935061441d565b6143f385614f64565b60005b83811015614415578154818901526001820191506020810190506143f6565b838801955050505b50505092915050565b6000614433602083614fc6565b915061443e8261537e565b602082019050919050565b6000614456601883614fc6565b9150614461826153a7565b602082019050919050565b6000614479600283614fd7565b9150614484826153d0565b600282019050919050565b600061449c603083614fc6565b91506144a7826153f9565b604082019050919050565b60006144bf603283614fc6565b91506144ca82615448565b604082019050919050565b60006144e2602583614fc6565b91506144ed82615497565b604082019050919050565b6000614505601c83614fc6565b9150614510826154e6565b602082019050919050565b6000614528602483614fc6565b91506145338261550f565b604082019050919050565b600061454b601983614fc6565b91506145568261555e565b602082019050919050565b600061456e602c83614fc6565b915061457982615587565b604082019050919050565b6000614591603883614fc6565b915061459c826155d6565b604082019050919050565b60006145b4600183614fd7565b91506145bf82615625565b600182019050919050565b60006145d7602a83614fc6565b91506145e28261564e565b604082019050919050565b60006145fa602983614fc6565b91506146058261569d565b604082019050919050565b600061461d602f83614fc6565b9150614628826156ec565b604082019050919050565b6000614640603483614fc6565b915061464b8261573b565b604082019050919050565b6000614663602083614fc6565b915061466e8261578a565b602082019050919050565b6000614686602c83614fc6565b9150614691826157b3565b604082019050919050565b60006146a9602f83614fc6565b91506146b482615802565b604082019050919050565b60006146cc602583614fc6565b91506146d782615851565b604082019050919050565b60006146ef600383614fd7565b91506146fa826158a0565b600382019050919050565b6000614712602183614fc6565b915061471d826158c9565b604082019050919050565b6000614735603383614fc6565b915061474082615918565b604082019050919050565b6000614758601183614fc6565b915061476382615967565b602082019050919050565b600061477b603283614fc6565b915061478682615990565b604082019050919050565b600061479e602f83614fc6565b91506147a9826159df565b604082019050919050565b60006147c1603183614fc6565b91506147cc82615a2e565b604082019050919050565b60006147e4601e83614fc6565b91506147ef82615a7d565b602082019050919050565b6000614807600283614fd7565b915061481282615aa6565b600282019050919050565b600061482a603083614fc6565b915061483582615acf565b604082019050919050565b6000604083016000830151614858600086018261421f565b50602083015184820360208601526148708282614285565b9150508091505092915050565b61488681615198565b82525050565b614895816151a2565b82525050565b60006148a782856142f7565b91506148b382846142f7565b91508190509392505050565b60006148cb82856142f7565b91506148d782846143a7565b91508190509392505050565b60006148ef82856142f7565b91506148fb8284614328565b91508190509392505050565b600061491382846142f7565b915061491e8261446c565b915081905092915050565b600061493582846142f7565b9150614940826145a7565b915081905092915050565b600061495782846142f7565b9150614962826146e2565b915081905092915050565b600061497982846142f7565b9150614984826147fa565b915081905092915050565b60006020820190506149a4600083018461422e565b92915050565b60006080820190506149bf600083018761422e565b6149cc602083018661422e565b6149d9604083018561487d565b81810360608301526149eb818461424c565b905095945050505050565b6000602082019050614a0b600083018461423d565b92915050565b600060a0820190508181036000830152614a2b818861424c565b90508181036020830152614a3f8187614840565b90508181036040830152614a53818661424c565b9050614a62606083018561488c565b8181036080830152614a74818461424c565b90509695505050505050565b60006020820190508181036000830152614a9a81846142be565b905092915050565b60006040820190508181036000830152614abc81856142be565b9050614acb602083018461423d565b9392505050565b60006020820190508181036000830152614aeb81614426565b9050919050565b60006020820190508181036000830152614b0b81614449565b9050919050565b60006020820190508181036000830152614b2b8161448f565b9050919050565b60006020820190508181036000830152614b4b816144b2565b9050919050565b60006020820190508181036000830152614b6b816144d5565b9050919050565b60006020820190508181036000830152614b8b816144f8565b9050919050565b60006020820190508181036000830152614bab8161451b565b9050919050565b60006020820190508181036000830152614bcb8161453e565b9050919050565b60006020820190508181036000830152614beb81614561565b9050919050565b60006020820190508181036000830152614c0b81614584565b9050919050565b60006020820190508181036000830152614c2b816145ca565b9050919050565b60006020820190508181036000830152614c4b816145ed565b9050919050565b60006020820190508181036000830152614c6b81614610565b9050919050565b60006020820190508181036000830152614c8b81614633565b9050919050565b60006020820190508181036000830152614cab81614656565b9050919050565b60006020820190508181036000830152614ccb81614679565b9050919050565b60006020820190508181036000830152614ceb8161469c565b9050919050565b60006020820190508181036000830152614d0b816146bf565b9050919050565b60006020820190508181036000830152614d2b81614705565b9050919050565b60006020820190508181036000830152614d4b81614728565b9050919050565b60006020820190508181036000830152614d6b8161474b565b9050919050565b60006020820190508181036000830152614d8b8161476e565b9050919050565b60006020820190508181036000830152614dab81614791565b9050919050565b60006020820190508181036000830152614dcb816147b4565b9050919050565b60006020820190508181036000830152614deb816147d7565b9050919050565b60006020820190508181036000830152614e0b8161481d565b9050919050565b6000602082019050614e27600083018461487d565b92915050565b6000614e37614e48565b9050614e438282615237565b919050565b6000604051905090565b600067ffffffffffffffff821115614e6d57614e6c61533e565b5b602082029050602081019050919050565b600067ffffffffffffffff821115614e9957614e9861533e565b5b602082029050602081019050919050565b600067ffffffffffffffff821115614ec557614ec461533e565b5b602082029050602081019050919050565b600067ffffffffffffffff821115614ef157614ef061533e565b5b602082029050602081019050919050565b600067ffffffffffffffff821115614f1d57614f1c61533e565b5b614f268261536d565b9050602081019050919050565b600067ffffffffffffffff821115614f4e57614f4d61533e565b5b614f578261536d565b9050602081019050919050565b60008190508160005260206000209050919050565b60008190508160005260206000209050919050565b600081519050919050565b600081519050919050565b600082825260208201905092915050565b600082825260208201905092915050565b600082825260208201905092915050565b600081905092915050565b6000614fed82615198565b9150614ff883615198565b9250827fffffffffffffffffffffffffffffffffffffffffffffffffffffffffffffffff0382111561502d5761502c6152b1565b5b828201905092915050565b6000615043826151b6565b915061504e836151b6565b92508260ff03821115615064576150636152b1565b5b828201905092915050565b600061507a82615198565b915061508583615198565b925082615095576150946152e0565b5b828204905092915050565b60006150ab82615198565b91506150b683615198565b9250817fffffffffffffffffffffffffffffffffffffffffffffffffffffffffffffffff04831182151516156150ef576150ee6152b1565b5b828202905092915050565b600061510582615198565b915061511083615198565b925082821015615123576151226152b1565b5b828203905092915050565b600061513982615178565b9050919050565b60008115159050919050565b60007fffffffff0000000000000000000000000000000000000000000000000000000082169050919050565b600073ffffffffffffffffffffffffffffffffffffffff82169050919050565b6000819050919050565b600067ffffffffffffffff82169050919050565b600060ff82169050919050565b82818337600083830152505050565b60005b838110156151f05780820151818401526020810190506151d5565b838111156151ff576000848401525b50505050565b6000600282049050600182168061521d57607f821691505b602082108114156152315761523061530f565b5b50919050565b6152408261536d565b810181811067ffffffffffffffff8211171561525f5761525e61533e565b5b80604052505050565b600061527382615198565b91507fffffffffffffffffffffffffffffffffffffffffffffffffffffffffffffffff8214156152a6576152a56152b1565b5b600182019050919050565b7f4e487b7100000000000000000000000000000000000000000000000000000000600052601160045260246000fd5b7f4e487b7100000000000000000000000000000000000000000000000000000000600052601260045260246000fd5b7f4e487b7100000000000000000000000000000000000000000000000000000000600052602260045260246000fd5b7f4e487b7100000000000000000000000000000000000000000000000000000000600052604160045260246000fd5b6000601f19601f8301169050919050565b7f4f6e6c792074686520746f6b656e206f776e65722063616e20646f2074686973600082015250565b7f50726f7065727479206973206e6f74206564697461626c650000000000000000600082015250565b7f2c0a000000000000000000000000000000000000000000000000000000000000600082015250565b7f4f6e6c79207468652054656e616e74206f776e65722063616e2065646974206160008201527f20737472696e672070726f706572747900000000000000000000000000000000602082015250565b7f4552433732313a207472616e7366657220746f206e6f6e20455243373231526560008201527f63656976657220696d706c656d656e7465720000000000000000000000000000602082015250565b7f4552433732313a207472616e736665722066726f6d20696e636f72726563742060008201527f6f776e6572000000000000000000000000000000000000000000000000000000602082015250565b7f4552433732313a20746f6b656e20616c7265616479206d696e74656400000000600082015250565b7f4552433732313a207472616e7366657220746f20746865207a65726f2061646460008201527f7265737300000000000000000000000000000000000000000000000000000000602082015250565b7f4552433732313a20617070726f766520746f2063616c6c657200000000000000600082015250565b7f4552433732313a206f70657261746f7220717565727920666f72206e6f6e657860008201527f697374656e7420746f6b656e0000000000000000000000000000000000000000602082015250565b7f4552433732313a20617070726f76652063616c6c6572206973206e6f74206f7760008201527f6e6572206e6f7220617070726f76656420666f7220616c6c0000000000000000602082015250565b7f2200000000000000000000000000000000000000000000000000000000000000600082015250565b7f4552433732313a2062616c616e636520717565727920666f7220746865207a6560008201527f726f206164647265737300000000000000000000000000000000000000000000602082015250565b7f4552433732313a206f776e657220717565727920666f72206e6f6e657869737460008201527f656e7420746f6b656e0000000000000000000000000000000000000000000000602082015250565b7f4f6e6c79207468652054656e616e74206f776e65722063616e2061646420612060008201527f676c6f62616c2070726f70657274790000000000000000000000000000000000602082015250565b7f4e756d626572206f662076616c756573206d757374206d61746368207468652060008201527f6e756d626572206f662070726f70657274696573000000000000000000000000602082015250565b7f4552433732313a206d696e7420746f20746865207a65726f2061646472657373600082015250565b7f4552433732313a20617070726f76656420717565727920666f72206e6f6e657860008201527f697374656e7420746f6b656e0000000000000000000000000000000000000000602082015250565b7f4552433732314d657461646174613a2055524920717565727920666f72206e6f60008201527f6e6578697374656e7420746f6b656e0000000000000000000000000000000000602082015250565b7f4f6e6c79207468652054656e616e74206f776e65722063616e206d696e74206160008201527f6e204e4654000000000000000000000000000000000000000000000000000000602082015250565b7f223a200000000000000000000000000000000000000000000000000000000000600082015250565b7f4552433732313a20617070726f76616c20746f2063757272656e74206f776e6560008201527f7200000000000000000000000000000000000000000000000000000000000000602082015250565b7f4f6e6c79207468652054656e616e74206f776e65722063616e2065646974206160008201527f206e756d65726963616c2070726f706572747900000000000000000000000000602082015250565b7f496e76616c696420737472756374757265000000000000000000000000000000600082015250565b7f4f6e6c79207468652054656e616e74206f776e65722063616e2061646420612060008201527f6e756d65726963616c2070726f70657274790000000000000000000000000000602082015250565b7f4f6e6c79207468652054656e616e74206f776e65722063616e2061646420612060008201527f737472696e672070726f70657274790000000000000000000000000000000000602082015250565b7f4552433732313a207472616e736665722063616c6c6572206973206e6f74206f60008201527f776e6572206e6f7220617070726f766564000000000000000000000000000000602082015250565b7f416c726561647920696e697469616c697a6564207468652073746174652e0000600082015250565b7f0a7d000000000000000000000000000000000000000000000000000000000000600082015250565b7f4f6e6c79207468652054656e616e74206f776e65722063616e2065646974206160008201527f20676c6f62616c2070726f706572747900000000000000000000000000000000602082015250565b615b278161512e565b8114615b3257600080fd5b50565b615b3e81615140565b8114615b4957600080fd5b50565b615b558161514c565b8114615b6057600080fd5b50565b615b6c81615198565b8114615b7757600080fd5b5056fea26469706673582212209b8651cd6b6154e4b06ee0b9ba5ba953e6e57e3f5e2ab6111b200e757c16fed364736f6c63430008040033",
  "linkReferences": {},
  "deployedLinkReferences": {}
}