{
  "_format": "hh-sol-artifact-1",
  "contractName": "ExampleNFTFactory",
  "sourceName": "contracts/ExampleNFTFactory.sol",
  "abi": [
    {
      "inputs": [
        {
          "internalType": "address",
          "name": "_masterContract",
          "type": "address"
        }
      ],
      "stateMutability": "nonpayable",
      "type": "constructor"
    },
    {
      "inputs": [
        {
          "internalType": "string",
          "name": "name",
          "type": "string"
        },
        {
          "internalType": "string",
          "name": "symbol",
          "type": "string"
        },
        {
          "internalType": "string[]",
          "name": "_globalMetadataKeys",
          "type": "string[]"
        },
        {
          "internalType": "string[]",
          "name": "_globalMetadata",
          "type": "string[]"
        },
        {
          "components": [
            {
              "internalType": "string",
              "name": "propertyName",
              "type": "string"
            },
            {
              "internalType": "bool",
              "name": "editable",
              "type": "bool"
            }
          ],
          "internalType": "struct NumericalProperty[]",
          "name": "_numericalProperties",
          "type": "tuple[]"
        },
        {
          "components": [
            {
              "internalType": "string",
              "name": "propertyName",
              "type": "string"
            },
            {
              "internalType": "bool",
              "name": "editable",
              "type": "bool"
            }
          ],
          "internalType": "struct StringProperty[]",
          "name": "_stringProperties",
          "type": "tuple[]"
        }
      ],
      "name": "createInstance",
      "outputs": [],
      "stateMutability": "nonpayable",
      "type": "function"
    },
    {
      "inputs": [
        {
          "internalType": "address",
          "name": "_tenant",
          "type": "address"
        }
      ],
      "name": "getProxy",
      "outputs": [
        {
          "internalType": "contract ExampleNFT",
          "name": "",
          "type": "address"
        }
      ],
      "stateMutability": "view",
      "type": "function"
    },
    {
      "inputs": [],
      "name": "masterContract",
      "outputs": [
        {
          "internalType": "address",
          "name": "",
          "type": "address"
        }
      ],
      "stateMutability": "view",
      "type": "function"
    },
    {
      "inputs": [
        {
          "internalType": "address",
          "name": "",
          "type": "address"
        }
      ],
      "name": "tenants",
      "outputs": [
        {
          "internalType": "contract ExampleNFT",
          "name": "nft",
          "type": "address"
        },
        {
          "internalType": "address",
          "name": "owner",
          "type": "address"
        }
      ],
      "stateMutability": "view",
      "type": "function"
    }
  ],
  "bytecode": "0x60a060405273d847c7408c48b6b6720cca75eb30a93acbf5163d600160006101000a81548173ffffffffffffffffffffffffffffffffffffffff021916908373ffffffffffffffffffffffffffffffffffffffff16021790555034801561006557600080fd5b506040516110b73803806110b7833981810160405281019061008791906100d9565b8073ffffffffffffffffffffffffffffffffffffffff1660808173ffffffffffffffffffffffffffffffffffffffff1660601b815250505061014b565b6000815190506100d381610134565b92915050565b6000602082840312156100eb57600080fd5b60006100f9848285016100c4565b91505092915050565b600061010d82610114565b9050919050565b600073ffffffffffffffffffffffffffffffffffffffff82169050919050565b61013d81610102565b811461014857600080fd5b50565b60805160601c610f4861016f6000396000818160f801526102d50152610f486000f3fe608060405234801561001057600080fd5b506004361061004c5760003560e01c80635eb6ef7b14610051578063b7fba4d31461006d578063cd446e221461009d578063fd9153a3146100bb575b600080fd5b61006b60048036038101906100669190610758565b6100ec565b005b6100876004803603810190610082919061072f565b610268565b6040516100949190610b40565b60405180910390f35b6100a56102d3565b6040516100b29190610b25565b60405180910390f35b6100d560048036038101906100d0919061072f565b6102f7565b6040516100e3929190610b5b565b60405180910390f35b6000339050600061011c7f000000000000000000000000000000000000000000000000000000000000000061035b565b90508073ffffffffffffffffffffffffffffffffffffffff166386276e948989858a8a8a8a6040518863ffffffff1660e01b81526004016101639796959493929190610b84565b600060405180830381600087803b15801561017d57600080fd5b505af1158015610191573d6000803e3d6000fd5b5050505060008060008473ffffffffffffffffffffffffffffffffffffffff1673ffffffffffffffffffffffffffffffffffffffff1681526020019081526020016000209050818160000160006101000a81548173ffffffffffffffffffffffffffffffffffffffff021916908373ffffffffffffffffffffffffffffffffffffffff160217905550828160010160006101000a81548173ffffffffffffffffffffffffffffffffffffffff021916908373ffffffffffffffffffffffffffffffffffffffff160217905550505050505050505050565b60008060008373ffffffffffffffffffffffffffffffffffffffff1673ffffffffffffffffffffffffffffffffffffffff16815260200190815260200160002060000160009054906101000a900473ffffffffffffffffffffffffffffffffffffffff169050919050565b7f000000000000000000000000000000000000000000000000000000000000000081565b60006020528060005260406000206000915090508060000160009054906101000a900473ffffffffffffffffffffffffffffffffffffffff16908060010160009054906101000a900473ffffffffffffffffffffffffffffffffffffffff16905082565b6000808260601b90506040517f3d602d80600a3d3981f3363d3d373d3d3d363d7300000000000000000000000081528160148201527f5af43d82803e903d91602b57fd5bf3000000000000000000000000000000000060288201526037816000f092505050919050565b60006103d86103d384610c42565b610c1d565b905080838252602082019050828560208602820111156103f757600080fd5b60005b8581101561044157813567ffffffffffffffff81111561041957600080fd5b808601610426898261063d565b855260208501945060208401935050506001810190506103fa565b5050509392505050565b600061045e61045984610c6e565b610c1d565b9050808382526020820190508285602086028201111561047d57600080fd5b60005b858110156104c757813567ffffffffffffffff81111561049f57600080fd5b8086016104ac8982610667565b85526020850194506020840193505050600181019050610480565b5050509392505050565b60006104e46104df84610c9a565b610c1d565b9050808382526020820190508285602086028201111561050357600080fd5b60005b8581101561054d57813567ffffffffffffffff81111561052557600080fd5b80860161053289826106cb565b85526020850194506020840193505050600181019050610506565b5050509392505050565b600061056a61056584610cc6565b610c1d565b90508281526020810184848401111561058257600080fd5b61058d848285610e31565b509392505050565b6000813590506105a481610ee4565b92915050565b600082601f8301126105bb57600080fd5b81356105cb8482602086016103c5565b91505092915050565b600082601f8301126105e557600080fd5b81356105f584826020860161044b565b91505092915050565b600082601f83011261060f57600080fd5b813561061f8482602086016104d1565b91505092915050565b60008135905061063781610efb565b92915050565b600082601f83011261064e57600080fd5b813561065e848260208601610557565b91505092915050565b60006040828403121561067957600080fd5b6106836040610c1d565b9050600082013567ffffffffffffffff81111561069f57600080fd5b6106ab8482850161063d565b60008301525060206106bf84828501610628565b60208301525092915050565b6000604082840312156106dd57600080fd5b6106e76040610c1d565b9050600082013567ffffffffffffffff81111561070357600080fd5b61070f8482850161063d565b600083015250602061072384828501610628565b60208301525092915050565b60006020828403121561074157600080fd5b600061074f84828501610595565b91505092915050565b60008060008060008060c0878903121561077157600080fd5b600087013567ffffffffffffffff81111561078b57600080fd5b61079789828a0161063d565b965050602087013567ffffffffffffffff8111156107b457600080fd5b6107c089828a0161063d565b955050604087013567ffffffffffffffff8111156107dd57600080fd5b6107e989828a016105aa565b945050606087013567ffffffffffffffff81111561080657600080fd5b61081289828a016105aa565b935050608087013567ffffffffffffffff81111561082f57600080fd5b61083b89828a016105d4565b92505060a087013567ffffffffffffffff81111561085857600080fd5b61086489828a016105fe565b9150509295509295509295565b600061087d8383610a39565b905092915050565b60006108918383610aab565b905092915050565b60006108a58383610ae8565b905092915050565b6108b681610dcf565b82525050565b60006108c782610d27565b6108d18185610d7a565b9350836020820285016108e385610cf7565b8060005b8581101561091f57848403895281516109008582610871565b945061090b83610d53565b925060208a019950506001810190506108e7565b50829750879550505050505092915050565b600061093c82610d32565b6109468185610d8b565b93508360208202850161095885610d07565b8060005b8581101561099457848403895281516109758582610885565b945061098083610d60565b925060208a0199505060018101905061095c565b50829750879550505050505092915050565b60006109b182610d3d565b6109bb8185610d9c565b9350836020820285016109cd85610d17565b8060005b85811015610a0957848403895281516109ea8582610899565b94506109f583610d6d565b925060208a019950506001810190506109d1565b50829750879550505050505092915050565b610a2481610de1565b82525050565b610a3381610e0d565b82525050565b6000610a4482610d48565b610a4e8185610dad565b9350610a5e818560208601610e40565b610a6781610ed3565b840191505092915050565b6000610a7d82610d48565b610a878185610dbe565b9350610a97818560208601610e40565b610aa081610ed3565b840191505092915050565b60006040830160008301518482036000860152610ac88282610a39565b9150506020830151610add6020860182610a1b565b508091505092915050565b60006040830160008301518482036000860152610b058282610a39565b9150506020830151610b1a6020860182610a1b565b508091505092915050565b6000602082019050610b3a60008301846108ad565b92915050565b6000602082019050610b556000830184610a2a565b92915050565b6000604082019050610b706000830185610a2a565b610b7d60208301846108ad565b9392505050565b600060e0820190508181036000830152610b9e818a610a72565b90508181036020830152610bb28189610a72565b9050610bc160408301886108ad565b8181036060830152610bd381876108bc565b90508181036080830152610be781866108bc565b905081810360a0830152610bfb8185610931565b905081810360c0830152610c0f81846109a6565b905098975050505050505050565b6000610c27610c38565b9050610c338282610e73565b919050565b6000604051905090565b600067ffffffffffffffff821115610c5d57610c5c610ea4565b5b602082029050602081019050919050565b600067ffffffffffffffff821115610c8957610c88610ea4565b5b602082029050602081019050919050565b600067ffffffffffffffff821115610cb557610cb4610ea4565b5b602082029050602081019050919050565b600067ffffffffffffffff821115610ce157610ce0610ea4565b5b610cea82610ed3565b9050602081019050919050565b6000819050602082019050919050565b6000819050602082019050919050565b6000819050602082019050919050565b600081519050919050565b600081519050919050565b600081519050919050565b600081519050919050565b6000602082019050919050565b6000602082019050919050565b6000602082019050919050565b600082825260208201905092915050565b600082825260208201905092915050565b600082825260208201905092915050565b600082825260208201905092915050565b600082825260208201905092915050565b6000610dda82610ded565b9050919050565b60008115159050919050565b600073ffffffffffffffffffffffffffffffffffffffff82169050919050565b6000610e1882610e1f565b9050919050565b6000610e2a82610ded565b9050919050565b82818337600083830152505050565b60005b83811015610e5e578082015181840152602081019050610e43565b83811115610e6d576000848401525b50505050565b610e7c82610ed3565b810181811067ffffffffffffffff82111715610e9b57610e9a610ea4565b5b80604052505050565b7f4e487b7100000000000000000000000000000000000000000000000000000000600052604160045260246000fd5b6000601f19601f8301169050919050565b610eed81610dcf565b8114610ef857600080fd5b50565b610f0481610de1565b8114610f0f57600080fd5b5056fea2646970667358221220c22dd438f07b1d6cdda9f6d0cec219d2fa014e4498e1338d7e969361c4e54e3964736f6c63430008040033",
  "linkReferences": {},
  "deployedLinkReferences": {}
}